:020000040800F2
:10000000D0190020C901000829200008691E000835
:10001000252000082F030008074B000800000000FF
:10002000000000000000000000000000D5260008CD
:10003000A9030008000000001F250008D7260008BB
:10004000E3010008E3010008E3010008E301000800
:10005000E3010008E3010008E3010008E3010008F0
:10006000E3010008E3010008E3010008E3010008E0
:10007000E3010008E3010008E3010008E3010008D0
:10008000E3010008E3010008E3010008414A000819
:10009000514A0008E3010008E3010008E3010008F9
:1000A000E3010008E3010008E3010008E3010008A0
:1000B000E3010008E3010008E3010008E301000890
:1000C000E3010008E3010008E3010008E301000880
:1000D000E3010008E3010008E3010008E301000870
:1000E000E3010008E3010008E301000800F002F862
:1000F00000F05AF80AA090E8000C82448344AAF168
:100100000107DA4501D100F04FF8AFF2090EBAE865
:100110000F0013F0010F18BFFB1A43F0010318473B
:100120000C5800002C5800000A444FF0000C10F846
:10013000013B13F0070408BF10F8014B1D1108BF65
:1001400010F8015B641E05D010F8016B641E01F805
:10015000016BF9D113F0080F1EBF10F8014BAD1C55
:100160000C1B09D16D1E58BF01F801CBFAD505E073
:1001700014F8016B01F8016B6D1EF9D59142D6D3CD
:10018000704700000023002400250026103A28BFF5
:1001900078C1FBD8520728BF30C148BF0B607047F9
:1001A0001FB51FBD10B510BD00F08AF81146FFF74E
:1001B000F7FF04F01DFD00F0A8F803B4FFF7F2FF0D
:1001C00003BC00F0ADF8000009488047094800472B
:1001D000FEE7FEE7FEE7FEE7FEE7FEE7FEE7FEE7F7
:1001E000FEE7FEE704480549054A064B7047000054
:1001F00061270008ED000008D0130020D01900206E
:10020000D0150020D015002010B5203AC0F00B808A
:10021000B1E81850203AA0E81850B1E81850A0E80A
:100220001850BFF4F5AF5FEA027C24BFB1E8185064
:10023000A0E8185044BF18C918C0BDE810405FEAD4
:10024000827C24BF51F8043B40F8043B08BF704750
:10025000D20728BF31F8023B48BF11F8012B28BF55
:1002600020F8023B48BF00F8012B70474FF0000216
:1002700000B5134694469646203922BFA0E80C509C
:10028000A0E80C50B1F12001BFF4F7AF090728BF77
:10029000A0E80C5048BF0CC05DF804EB890028BFF3
:1002A00040F8042B08BF704748BF20F8022B11F01C
:1002B000804F18BF00F8012B704770477047704798
:1002C000754600F029F8AE4605006946534620F011
:1002D0000700854618B020B5FFF784FFBDE8204031
:1002E0004FF000064FF000074FF000084FF0000BF2
:1002F00021F00701AC46ACE8C009ACE8C009ACE8A5
:10030000C009ACE8C0098D4670470446AFF30080D1
:100310002046FFF752FF0000004870476C13002092
:1003200001491820ABBEFEE726000200704700BF5F
:10033000FEE704284FF000007047002070470000DF
:1003400010B500220449054802F015FB0449034892
:1003500002F00BFB002010BD5C0A00209801002079
:100360005C06002010B50146034802F0FEFA024880
:1003700002F0DAFA002010BD9801002010B50A46FC
:100380000849D1F8B812D1F81412002901D001207F
:1003900010BD0146034802F0EEFABDE810400148E6
:1003A00002F064BB98010020704772B600BFFEE700
:1003B00070B50B480168001D0568001D0068084401
:1003C00000280CD0074C0822A11C01F04FFD04F1BD
:1003D00012012846BDE87040042201F047BD70BDFF
:1003E000E8F7FF1F580000202DE9F84703460022D8
:1003F00094466EE14FF0010808FA02F4D1F800804B
:1004000008EA0400A0427DD1DFF8DCA2D1F8048024
:10041000A8EB0A09D0453AD014DCB8F1030F50D04C
:1004200009DCB8F1000F31D0B8F1010F1CD0B8F1E0
:10043000020F49D120E0B8F1110F18D0B8F1120F16
:1004400042D11EE0B9F5881F25D006DCB9F5803F02
:1004500020D0B9F5801F37D11AE0B9F5001F18D0A8
:10046000B9F5041F30D117E0D1F80CC02DE0D1F858
:100470000C8008F1040C28E0D1F80C8008F1080C7D
:1004800023E0D1F80C8008F10C0C1EE000BF00BF87
:1004900000BF00BF00BF00BFD1F80880B8F1000F57
:1004A00002D14FF0040C0BE0D1F80880B8F1010F35
:1004B00003D14FF0080C1C6102E04FF0080C5C61A6
:1004C00003E04FF0000C00E000BF00BFFF2801D8A0
:1004D000984601E003F104084646FF2802D84FEA97
:1004E000820803E0A2F108084FEA88084746D6F8D8
:1004F00000804FF00F0909FA07F928EA09080CFAF9
:1005000007F900E088E048EA0908C6F80080D1F859
:10051000048008F08058B8F1805F7DD100BFDFF81B
:10052000CC81D8F8188048F00108DFF8C091C9F8EC
:100530001880C846D8F8188008F00108CDF8008067
:1005400000BF00BF4FEAB9384FEA920958F8295066
:100550004FEA82784FEA18794FF00F0808FA09F845
:1005600025EA0805DFF88881434502D14FF00008ED
:1005700016E0DFF88081434502D14FF001080FE01B
:10058000DFF87481434502D14FF0020808E0DFF83C
:100590006C81434502D14FF0030801E04FF004089D
:1005A0004FEA82794FEA197908FA09F848EA05050D
:1005B000DFF84C814FEA920948F82950D1F80480BD
:1005C00008F48018B8F5801F0AD1DFF83881D8F810
:1005D000008048EA0008DFF82C91C9F8008009E0A3
:1005E000DFF82081D8F8008028EA0008DFF81491AD
:1005F000C9F80080D1F8048008F40018B8F5001F8D
:1006000010D1DFF8008108F10408D8F8008048EA2A
:100610000008DFF8F09000E05AE009F10409C9F899
:1006200000800DE0DFF8DC8008F10408D8F80080D5
:1006300028EA0008DFF8CC9009F10409C9F8008025
:10064000D1F8048008F40038B8F5003F0ED1DFF887
:10065000B480A8F10408D8F8008048EA0008DFF860
:10066000A490A9F10409C9F800800DE0DFF8948096
:10067000A8F10408D8F8008028EA0008DFF8849080
:10068000A9F10409C9F80080D1F8048008F4803881
:10069000B8F5803F0ED1DFF86C80A8F10808D8F8D3
:1006A000008048EA0008DFF85C90A9F10809C9F861
:1006B00000800DE0DFF84C80A8F10808D8F8008031
:1006C00028EA0008DFF83C90A9F10809C9F8008081
:1006D000521CD1F8008028FA02F8B8F1000F7FF41C
:1006E00089AEBDE8F887000000001110001002403C
:1006F00000080140000C01400010014000140140BE
:100700000800014008040140024693680B400BB109
:10071000012000E0002070470AB1016101E00B04F4
:100720000361704701480068704700001400002012
:100730000348006803490978084401490860704784
:10074000140000201C00002010B50848006840F08C
:10075000100006490860032000F0A8F80F2000F000
:1007600007F800F02BF8002010BD00000020024028
:1007700070B504460E4800784FF47A71B1FBF0F082
:100780000C490968B1FBF0F5284601F053FB08B1AC
:10079000012070BD102C07D200222146501E00F00F
:1007A00047F80548046001E00120F2E70020F0E787
:1007B0001C000020200000201800002008B500BF09
:1007C0001148806940F001000F498861084680693E
:1007D00000F00100009000BF00BF00BF0846C069E4
:1007E00040F08050C8610846C06900F08050009019
:1007F00000BF00BF00BF0549486820F0E06040F03E
:100800000070486000BF08BD0010024000000140B9
:1008100001460846002809DB00F01F0301229A4028
:1008200043099B0003F1E023C3F8002100BF704798
:100830002DE9F05F80460D461646002704F0BCF90E
:10084000074639462A46334601F00700C0F1070A39
:10085000BAF1040F02D94FF0040A01E0C0F1070A0F
:10086000D14600F1040ABAF1070F02D24FF0000A94
:1008700001E0A0F1030AD4464FF0010A0AFA09FA8E
:10088000AAF1010A0AEA020A0AFA0CFA4FF0010B6D
:100890000BFA0CFBABF1010B0BEA030B4AEA0B045E
:1008A0002146404604F090F9BDE8F09F00BF00F0FB
:1008B0000702064B19684FF6FF031940044B0B4320
:1008C00043EA0221014B196000BF70470CED00E0C4
:1008D0000000FA0570B505460C4604F0800080283B
:1008E00008D104F0070000EB800605F1280000EBBA
:1008F000C60105E004EB840605F5B47000EBC60103
:100900001AB900200873CB8004E0012008730B8122
:10091000180C4881002070BD704701EB810200EB8C
:10092000C202D0F8EC02D26B02F010BB01EB8102E4
:1009300000EBC202D0F8EC02D2F87C2102F071BBCD
:1009400070B504460E4606F0800080280AD106F0F5
:10095000070000EB800104F1280000EBC105012035
:10096000687009E006F0070000EB800104F5B47040
:1009700000EBC1050020687006F00700287000BF7A
:1009800094F8A802012801D1022070BD012084F84A
:10099000A80200BF2946206803F02AF900BF002002
:1009A00084F8A80200BF00BFEFE770B504460E460A
:1009B00006F00F006168884201D9012070BD06F081
:1009C000800080280AD106F0070000EB800104F1C6
:1009D000280000EBC1050120687009E006F007005F
:1009E00000EB800104F5B47000EBC10500206870D5
:1009F0000020A87006F00700287000BF94F8A80235
:100A0000012801D10220D9E7012084F8A80200BF03
:100A10002946206803F048FA00BF002084F8A802A5
:100A200000BF00BFCAE72DE9F04105460C46174656
:100A300007F48040002850D02868B0F85010207883
:100A400001EBC000801C296801F5806131F81000BD
:100A5000C0F30906A069B04203D3A069801BA0615E
:100A600001E00020A061A069A8B900BF227852006F
:100A7000296831F812104BF68F7201EA020080F4F7
:100A8000005040F4004141F0800123785B002A6867
:100A900022F8131000BF07F04000A8B100BF00BF4C
:100AA00022785200296831F8121048F68F7201EA54
:100AB000020040F4004141F0C00123785B002A6845
:100AC00022F8131000BF00BF002E55D022896169A3
:100AD0003346286803F0C8FF4EE02868B0F850108D
:100AE000207801EBC000801D296801F5806131F894
:100AF0001000C0F30906A069B04203D3A069801BAF
:100B0000A06101E00020A061A069A8B900BF22781F
:100B10005200296831F812104BF68F7201EA020078
:100B200080F4005040F4004141F0800123785B00E4
:100B30002A6822F8131000BF07F04000A8B900BFD0
:100B400000BF22785200296831F8121048F68F72DF
:100B500001EA020040F4004141F0C00123785B004B
:100B60002A6822F8131000BF00BF2EB162896169A4
:100B70003346286803F078FF3046BDE8F0812DE960
:100B8000F04705460C46904608F0400000287ED00D
:100B90002868B0F85010207801EBC000801C29684C
:100BA00001F5806131F81000C0F30907A069B8426F
:100BB00003D9A069C01BA06101E00020A061A06969
:100BC00000287ED100BF6078C0B900BF29682A68BC
:100BD000B2F8502011442278022303EBC20201F53F
:100BE000806303EB420000BF0288C2F30902028067
:100BF000028842F40042028000BF13E060780128BE
:100C000010D100BF28682A68B2F85020104422781A
:100C1000022303EBC20200F5806303EB42010022D2
:100C20000A8000BF00BF00BF29686078F8B900BF24
:100C30002B68D5F800C0BCF850C0634494F800C0DD
:100C40004FF0060909EBCC0C03F5806909EB4C0069
:100C500000BFB0F800C0CCF3090CA0F800C0B0F899
:100C600000C04CF4004CA0F800C000BF12E0607857
:100C700001280FD12868B0F85000014420780623DD
:100C800003EBC00001F5806303EB400200E0B7E036
:100C90000020108000BF21782846FFF73EFE08F4B0
:100CA0008040002816D000BF00BF2278520029687B
:100CB00031F8121048F68F7201EA020040F4004148
:100CC00000E008E041F4814123785B002A6822F8C3
:100CD000131000BFD7E108F48040A8B100BF00BFE7
:100CE00022785200296831F8121048F68F7201EA12
:100CF000020040F4004141F4814123785B002A68FE
:100D000022F8131000BF00BF94F824000128E1D19D
:100D1000606938446061E0693844E0612169206AB3
:100D2000884204D32669206A801B20620BE0206A77
:100D300020B93E46002084F8240004E0002084F816
:100D40002400266A206200BF6078E8BB00BF2A68E2
:100D50002968B1F850100A442178022303EBC1013D
:100D600002F5806303EB4101084600BF0388C3F32B
:100D7000090303803E2E10D900BF710906F01F033E
:100D800003B9491E03884FF4004C4CEA812C1FFA2A
:100D90008CFC43EA0C03038014E026B9038843F477
:100DA000004303800EE000BF710806F0010303B1A9
:100DB000491C03884FF6FF7C0CEA812C43EA0C03A4
:100DC000038000BF00BF13E0FFE7607801280FD168
:100DD00000BF28682A68B2F8502010442278022305
:100DE00003EBC20200F5806303EB42010E8000BFFB
:100DF00000BFB3B222896169286803F064FE42E152
:100E00002868B0F85010207801EBC000801D2968D8
:100E100001F5806131F81000C0F30907A069B842FC
:100E200003D3A069C01BA06101E00020A061A069FC
:100E300000287ED100BF6078C0B900BF29682A6849
:100E4000B2F8502011442278022303EBC20201F5CC
:100E5000806303EB420000BF0288C2F309020280F4
:100E6000028842F40042028000BF13E0607801284B
:100E700010D100BF28682A68B2F8502010442278A8
:100E8000022303EBC20200F5806303EB4201002260
:100E90000A8000BF00BF00BF29686078F8B900BFB2
:100EA0002B68D5F800C0BCF850C0634494F800C06B
:100EB0004FF0060909EBCC0C03F5806909EB4C00F7
:100EC00000BFB0F800C0CCF3090CA0F800C0B0F827
:100ED00000C04CF4004CA0F800C000BF10E06078E7
:100EE00001280DD12868B0F850000144207806236D
:100EF00003EBC00001F5806303EB4002002010808B
:100F000000BF21782846FFF708FD08F4804000283C
:100F100016D100BF00BF22785200296831F81210A4
:100F200048F68F7201EA020040F4004141F4814129
:100F300000E006E023785B002A6822F8131000BF67
:100F4000A1E008F48040A8B900BF00BF2278520099
:100F5000296831F8121048F68F7201EA020040F455
:100F6000004141F4814123785B002A6822F8131084
:100F700000BF00BF94F8240001287ED16069384486
:100F80006061E0693844E0612169206A884204D3E5
:100F90002669206A801B20620BE0206A20B93E4649
:100FA000002084F8240004E0266A0020206284F8EF
:100FB000240000BF2A68607870BB00BFD5F800C06D
:100FC0002968B1F850108C4421784FF0060909EBDC
:100FD000C1010CF5806909EB4101084600BFB0F87A
:100FE0000090C9F30909A0F800903E2E15D900BF62
:100FF000710906F01F09B9F1000F00D1491EB0F8C0
:1010000000904FF4004A4AEA812A1FFA8AFA49EA14
:101010000A09A0F800901BE01CE036B9B0F8009077
:1010200049F40049A0F8009012E000BF710806F0F2
:101030000109B9F1000F00D0491CB0F800904FF63B
:10104000FF7A0AEA812A49EA0A09A0F8009000BF5B
:1010500000BF0FE0607801280CD12868B0F850007C
:1010600002442078062101EBC00002F5806101EB0B
:1010700040031E8000BFB3B200E004E062896169F2
:10108000286803F020FD00BF22785200296831F85B
:10109000121048F6BF7201EA020080F0100080F0E2
:1010A000200040F4004141F0800223785B00296871
:1010B00021F8132000BF0020BDE8F087024601F0B0
:1010C000070000EB800302F5B47000EBC300C069B9
:1010D00070472DE9F04705460E4690461F464FF0F3
:1010E000000906F0800080280AD106F0070000EB16
:1010F000800105F1280000EBC1040120607009E0C7
:1011000006F0070000EB800105F5B47000EBC104A8
:101110000020607006F007002070C4F81080E770AF
:10112000022F01D10020207100BF95F8A8020128EC
:1011300002D10220BDE8F087012085F8A80200BF97
:101140002146286802F0F8FA00BF002085F8A802BE
:1011500000BF4846EEE72DE9F04105460E4617462A
:10116000984606F0070000EB800105F5B47000EB2F
:10117000C1046761C4F818800020E061607006F067
:10118000070020702146286802F029FF0020BDE8F2
:10119000F08170B504460D4605F00700616888428D
:1011A00001D9012070BD05F0800080280AD105F02A
:1011B000070000EB800104F1280000EBC1060120CC
:1011C000707007E005EB850104F5B47000EBC10613
:1011D000002070700120B07005F00700307000BF73
:1011E00094F8A802012801D10220DBE7012084F84D
:1011F000A80200BF3146206802F0C3FE05F00700D8
:1012000020B904F52C71206802F04BFE00BF0020CD
:1012100084F8A80200BF00BFC4E72DE9F0410546ED
:101220000E4690461F4606F0070000EB800105F1D0
:10123000280000EBC104C4F81480A761012084F8E1
:10124000240027620020E0610120607006F00700A2
:1012500020702146286802F0C2FE0020BDE8F0811F
:101260007FB50446206803F0FBFB064606F4004009
:10127000B0F5004F03D1204600F0D8FE7FBD06F444
:101280008060B0F5806F10D12068B0F844004FF650
:10129000FF3108402168A1F84400204600F092F98F
:1012A0000021204600F0A9F9E8E706F48040B0F5F7
:1012B000804F09D12068B0F844004BF6FF71084018
:1012C0002168A1F84400D9E706F40050B0F5005FAA
:1012D00009D12068B0F844004DF6FF71084021683C
:1012E000A1F84400CAE706F48050B0F5805F1ED133
:1012F0002068B0F840004FF6FB7108402168A1F863
:1013000040002068B0F840004FF6F77108402168AF
:10131000A1F84000204600F068F92068B0F84400C9
:101320004EF6FF7108402168A1F84400A6E706F4D4
:101330000060B0F5006F56D1002507E06900206815
:1013400030F811002DF81500681CC5B2082DF5D332
:101350002068B0F8400040F001002168A1F840008A
:101360002068B0F840004FF6FE7108402168A1F8EF
:10137000400000BF2068B0F8440000F480600028FE
:10138000F8D02068B0F844004FF6FF3108402168DB
:10139000A1F84400002507E03DF815006A00216827
:1013A00021F81200681CC5B2082DF5D32068B0F8EA
:1013B000400040F008002168A1F840002068B0F823
:1013C00044004FF2FF7108402168A1F844002068F2
:1013D000B0F8400040F004002168A1F84000204629
:1013E00000F04CF94AE706F40070B0F5007F0CD12C
:1013F0002068B0F844004FF6FF5108402168A1F87A
:101400004400204600F0F5F838E706F48070B0F5A7
:10141000807F09D12068B0F844004FF6FF61084092
:101420002168A1F8440029E700BF27E730B585B05F
:10143000044614B9012005B030BD94F8A90228B9BA
:10144000002084F8A802204600F096F8032084F8D3
:10145000A902206802F01BFD142204F11001684665
:10146000FEF7D2FE94E80F0002F0BEFB20B102208E
:1014700084F8A9020120DEE70021206803F019FBAF
:1014800000252AE0012105EB850204F1280000EB8C
:10149000C200417005EB850104F1280000F83150CD
:1014A000002105EB850200EBC200C17005EB85024F
:1014B00004F1280000EBC200016105EB850204F194
:1014C000280000EBC200416105EB850204F1280011
:1014D00000EBC2008161681CC5B26068A842D1D827
:1014E00000252AE0002105EB850204F5B47000EB2D
:1014F000C200417005EB850104F5B47000F831506D
:10150000002105EB850200EBC200C17005EB8502EE
:1015100004F5B47000EBC200016105EB850204F52F
:10152000B47000EBC200416105EB850204F5B470B4
:1015300000EBC2008161681CC5B26068A842D1D8C6
:10154000142204F110016846FEF75EFE94E80F00D5
:1015500002F092FC20B1022084F8A90201206AE77F
:10156000002084F82400012084F8A902206802F0F9
:1015700080FC00205FE7000008B50068A0F1804112
:10158000B1F5B8411AD10E48C16941F40001C161F9
:10159000C06900F400000090002211461320FFF7FC
:1015A00047F91320FFF734F9002211461420FFF702
:1015B0003FF9BDE808401420FFF72AB908BD000034
:1015C0000010024070B504460125A068022801D031
:1015D000FEF7EBFE2946D4F8EC0201F012FED4F837
:1015E000EC02BDE8704001F0CDBDD0F8EC0201F096
:1015F000F2BDD0F8EC0201F0F8BD70B504460D461E
:1016000000BF94F8A802012801D1022070BD01207A
:1016100084F8A80200BF84F824502946206803F00B
:101620004BFA00BF002084F8A80200BF00BFEDE71E
:10163000D0F8EC2200F52C71104601F0EEBD10B58B
:10164000044600BF94F8A802012801D1022010BD71
:10165000012084F8A80200BF206803F0E8F9012106
:101660002046FFF759F9206802F000FC00BF002077
:1016700084F8A80200BF00BFE9E7000010B50446E7
:10168000D4F8EC0201F00AFEA069002804D0034857
:10169000016841F00601016010BD000010ED00E09E
:1016A000F8B5044600260025207800F00100002847
:1016B0006BD000274348C06900F0805070B900BF6C
:1016C0004048C06940F080503E49C8610846C06942
:1016D00000F08050009000BF00BF01273A4800682A
:1016E00000F48070B0B93848006840F48070364922
:1016F0000860FFF717F8064606E0FFF713F8801BAF
:10170000642801D90320F8BD2F48006800F48070D8
:101710000028F2D02B48006A00F440752DB3A08851
:1017200000F44070A84220D02648006A20F440759A
:10173000012026490860002008602248056205F063
:10174000010090B1FEF7EEFF064608E0FEF7EAFF63
:10175000801B41F28831884201D90320D3E7194820
:10176000006A00F002000028F0D01648006A20F459
:1017700040706168084313490862012F04D108468C
:10178000C06920F08050C86100BF207800F00200DE
:10179000022807D10B48406820F44040A168084364
:1017A00008494860207800F01000102807D105484B
:1017B000406820F48000E168084302494860002046
:1017C000A1E70000001002400070004040044242C7
:1017D00070B504460D460CB9012070BD5A4800682A
:1017E00000F00700A8420ED25748006820F007001A
:1017F0002843554908600846006800F00700A842E1
:1018000001D00120E9E7207800F0020002281DD174
:10181000207800F00400042805D14C48406840F4CA
:10182000E0604A494860207800F00800082805D1A7
:101830004648406840F46050444948604348406826
:1018400020F0F000A168084340494860207800F08B
:10185000010078B36068012806D13C48006800F4B4
:10186000003090B90120B8E76068022806D13748F7
:10187000006800F0007040B90120AEE7334800680E
:1018800000F0020008B90120A7E73048406820F0C6
:101890000300616808432D494860FEF743FF064690
:1018A00009E0FEF73FFF801B41F28831884202D9F0
:1018B000032092E707E02548406800F00C006168CB
:1018C000B0EB810FEDD12048006800F00700A8427E
:1018D0000ED91D48006820F0070028431A49086007
:1018E0000846006800F00700A84201D0012074E714
:1018F000207800F00400042807D11448406820F440
:10190000E060E168084311494860207800F0080071
:10191000082808D10D48406820F46050216940EA49
:10192000C1000A49486000F019F808494968C1F344
:101930000311074A515CC840064908600648006820
:10194000FEF716FF002048E700200240001002408A
:1019500012590008200000201800002070B5002156
:101960000022002400230020134D696801F00C05BB
:10197000F5B1042D02D0082D19D101E00F4819E06E
:101980000F4DC1F38346AB5D01F4803555B10A4D6F
:101990006D68C5F340450B4E725D084D5D43B5FB68
:1019A000F2F402E0084D03FB05F4204602E000BF1C
:1019B000064800BF00BF70BD00100240001BB7000A
:1019C000005900081059000800093D0000127A0073
:1019D000F8B504460CB90120F8BD207800F00100EC
:1019E000002878D0F848406800F00C0004280CD09B
:1019F000F548406800F00C00082811D1F248406812
:101A000000F48030B0F5803F0AD1EF48006800F460
:101A1000003000285FD0606800285CD10120DBE73F
:101A200000BF6068B0F5803F06D1E748006840F429
:101A30008030E549086028E0606858B9E2480068ED
:101A400020F48030E04908600846006820F48020D7
:101A500008601AE06068B0F5A02F0BD1DA48006882
:101A600040F48020D84908600846006840F480307F
:101A700008600AE0D448006820F48030D249086049
:101A80000846006820F48020086000BF606888B1C4
:101A9000FEF748FE054606E0FEF744FE401B6428BC
:101AA00001D9032098E7C848006800F400300028F6
:101AB000F2D010E0FEF736FE054606E0FEF732FEF5
:101AC000401B642801D9032086E7BF48006800F462
:101AD00000300028F2D1207800F00200022857D10F
:101AE000B948406800F00C0050B1B748406800F0B9
:101AF0000C00082818D1B448406800F4803098B928
:101B0000B148006800F0020020B12069012801D02E
:101B1000012061E7AC48006820F0F800616940EA04
:101B2000C100A949086033E02069E8B10120A74954
:101B30000860FEF7F7FD054606E0FEF7F3FD401BE3
:101B4000022801D9032047E79F48006800F00200FF
:101B50000028F2D09C48006820F0F800616940EA53
:101B6000C1009949086013E0002098490860FEF719
:101B7000D9FD054606E0FEF7D5FD401B022801D938
:101B8000032029E79048006800F002000028F2D105
:101B9000207800F0080008282DD1A069B8B10120F4
:101BA0008B490860FEF7BEFD054606E0FEF7BAFD6C
:101BB000401B022801D903200EE78348406A00F049
:101BC00002000028F2D0012000F0AAFC13E000205F
:101BD0007F490860FEF7A6FD054606E0FEF7A2FD78
:101BE000401B022801D90320F6E67748406A00F03E
:101BF00002000028F2D1207800F00400042873D1FC
:101C000000277148C06900F0805070B900BF6E486D
:101C1000C06940F080506C49C8610846C06900F056
:101C20008050009000BF00BF01276A48006800F4A0
:101C30008070B0B96748006840F4807065490860FA
:101C4000FEF770FD054606E0FEF76CFD401B6428BC
:101C500001D90320C0E65F48006800F480700028C6
:101C6000F2D000BFE068012806D15748006A40F072
:101C700001005549086227E0E06858B95248006AF7
:101C800020F00100504908620846006A20F0040074
:101C9000086219E0E06805280BD14B48006A40F063
:101CA0000400494908620846006A40F001000862E1
:101CB0000AE04548006A20F00100434908620846EE
:101CC000006A20F00400086200BFE068A0B1FEF7DF
:101CD00029FD054609E0FEF725FD401B41F288314C
:101CE000884202D9032077E622E03748006A00F0F4
:101CF00002000028EFD012E0FEF714FD054608E0D0
:101D0000FEF710FD401B41F28831884201D90320C3
:101D100062E62D48006A00F002000028F0D1012F91
:101D200005D12948C06920F080502749C86100BF0B
:101D3000E069C8B32448406800F00C00082860D06F
:101D4000E069022848D1002020490866FEF7EAFC35
:101D5000054606E0FEF7E6FC401B022801D90320F9
:101D60003AE61948006800F000700028F2D1206AB5
:101D7000B0F5803F07D11448406820F40030A168D6
:101D8000084311494860D4E9080108430E494968ED
:101D900021F4741108430C49486001200B4908667E
:101DA000FEF7C0FC054607E03DE0FEF7BBFC401B2C
:101DB000022801D903200FE60348006800F00070F4
:101DC0000028F2D02FE00000001002400000424244
:101DD0008004424200700040002014490866FEF76B
:101DE000A1FC054606E0FEF79DFC401B022801D938
:101DF0000320F1E50E48006800F000700028F2D1E1
:101E000011E0E069012800D1E6E50948466806F4DA
:101E10008031206A814204D106F47011606A8142E7
:101E200001D00120D8E50020D6E5000000004242A4
:101E30000010024070B504462546681EB0F1807F50
:101E400001D301200FE0681E4FF0E02148610F210F
:101E50004FF0FF3002F0B8FE00204FF0E021886123
:101E600007200861002070BD00BFFEE7F0B400232A
:101E7000002A18D90A24302537269C46B4EB107F57
:101E800004D905EB107701F8137003E006EB107727
:101E900001F81370000101EB430787F801C05B1CD8
:101EA000DBB29342EAD3F0BC7047000000B585B0C6
:101EB0000020019002900390049000BF4048806988
:101EC00040F010003E4988610846806900F010002B
:101ED000009000BF00BF00BF0846806940F02000AE
:101EE00088610846806900F02000009000BF00BFB4
:101EF00000BF0846806940F0040088610846806998
:101F000000F00400009000BF00BF00BF08468069D9
:101F100040F0080088610846806900F008000090E1
:101F200000BF00BF012248F23F712648FEF7F4FBD4
:101F3000012204212448FEF7EFFB01224FF46C41FB
:101F40002148FEF7E9FB4FF4604001900020029029
:101F50000120039001A91D48FEF746FA48F23F70A0
:101F6000019011200290012003900220049001A909
:101F70001448FEF739FAC020019000200290012099
:101F8000039001A90F48FEF72FFA41F2FB300190B0
:101F9000002002900120039001A90B48FEF724FACB
:101FA0004EF604400190112002900120039002207F
:101FB000049001A90448FEF717FA05B000BD00001F
:101FC0000010024000080140000C014000100140D8
:101FD00010B500220F49104800F090FF08B1FEF73D
:101FE000E4F90E490C4801F07FF908B1FEF7DDF97C
:101FF0000B49094800F0B1FC08B1FEF7D6F90648D4
:1020000001F024FA002803D0BDE81040FEF7CDB956
:1020100010BD000024000020980100206001002075
:102020007400002000BFFEE700BFFEE72DE9F05F6F
:1020300005466AE22868B0F844A00AF00F07002FAE
:102040007DD10AF01000B0BB00BF2968098848F6AE
:102050000F7201EA020040F400412A68118000BFBB
:1020600005F128042868B0F85010207801EBC00072
:10207000801C296801F5806131F81000C0F3090067
:10208000E061E16960690844606100212846FEF76B
:1020900044FC95F824000028CBD0A0690028C8D1C2
:1020A00095F8240040F080002968A1F84C00002039
:1020B00085F8240029E2FFE705F5B474286806884E
:1020C00006F4006030B32868B0F85010207801EBB7
:1020D000C000801D296801F5806131F81000C0F34F
:1020E0000900E061A18B8BB2E28805F52C712868AC
:1020F00002F0BAFC00BF2968098840F68F7201EA35
:10210000020040F080012A68118000BF2846FFF7D6
:102110008FFAFAE106F4004000288AD000BF29684F
:10212000098840F68F7201EA020040F080012A68B7
:10213000118000BF2868B0F85010207800E07AE0E5
:1021400001EBC000801D296801F5806131F81000A5
:10215000C0F30900E061E06990B1606980B1B4F852
:102160001CC01FFA8CF3E2886169286802F07CFCCD
:10217000E16960690844606100212846FEF7D6FBEA
:102180002868068806F40060002893D106F44050C1
:10219000B0F5405F8ED000BF2A682968B1F85010B2
:1021A0000A4402F20C41084600BF0388C3F3090346
:1021B000038023693E2B12D900BF23695909237C70
:1021C00003F01F0303B9491E03884FF4004C4CEA87
:1021D000812C1FFA8CFC43EA0C03038017E023696F
:1021E00023B9038843F40043038010E000BF236950
:1021F0005908237C03F0010303B1491C03884FF6FF
:10220000FF7C0CEA812C43EA0C03038000BF00BF73
:1022100000BF00BF296809884BF68F7201EA0200EF
:1022200080F4805080F4005040F4004141F080017F
:102230002A68118069E17900286830F8116006F495
:10224000004000286FD000BF7A00296831F81210D2
:1022500040F68F7201EA020040F080017B002A689C
:1022600022F8131000BF07EB870105F5B47000EBEF
:10227000C104207BB8B92868B0F85010207801EB71
:10228000C000801D296801F5806131F81000C0F39D
:102290000908B8F1000F5ED0E288616943462868FA
:1022A00002F0E2FB57E0E078022806D132462146F0
:1022B0002846FEF7B8FB80464DE000BF00BF2278FD
:1022C0005200296831F8121048F68F7201EA0200B4
:1022D00040F4004141F0C00123785B002A6822F8F5
:1022E000131000BF00BF21784900286830F81100A2
:1022F00000F48040C0B12868B0F85010207801EB9D
:10230000C000801C296801F5806131F81000C0F31D
:102310000908B8F1000F1ED0228961694346286878
:1023200002F0A2FB17E02AE02868B0F850102078ED
:1023300001EBC000801D296801F5806131F81000B3
:10234000C0F30908B8F1000F05D0628961694346FE
:10235000286802F089FBE0694044E061606940441C
:102360006061A06910B12069404504D921782846F0
:10237000FEF7DCFA03E02146286801F030FE06F0A3
:102380008000002876D007EB870105F1280000EBDC
:10239000C10400BF7A00296831F8121048F60F72A4
:1023A00001EA020040F400417B002A6822F8131081
:1023B00000BFE078012876D10020A061207B0028B2
:1023C0006BD006F0400080B300BF6078C0B900BF9A
:1023D00029682A68B2F8502011442278022303EBBE
:1023E000C20201F5806303EB420000BF0288C2F322
:1023F00009020280028842F40042028000BF13E01A
:102400006078012810D100BF28682A68B2F85020EF
:1024100010442278022303EBC20200F5806303EB31
:10242000420100220A8000BF37E0FFE700BF2968B1
:10243000607800BB00BF2B68D5F800C0BCF850C066
:10244000634494F800C04FF0060B0BEBCC0C03F583
:10245000806B0BEB4C0000BFB0F800C0CCF3090C54
:10246000A0F800C0B0F800C04CF4004CA0F800C0C8
:1024700000BF11E049E0607801280DD12868B0F86C
:10248000500001442078062303EBC00001F580636F
:1024900003EB40020020108000BF21782846FEF7A1
:1024A0003CFA32E0FFE706F4807048BB2868B0F8D9
:1024B0005010207801EBC000801C296801F5806174
:1024C00031F81000C0F30909A069484504D9A06992
:1024D000A0EB0900A06101E00020A061A06920B983
:1024E00021782846FEF719FA0FE0606948446061D8
:1024F000E0694844E0612146286801F070FD04E08D
:10250000324621462846FEF73AFB2868B0F84400D8
:1025100000F4004000287FF48DADBDE8F09F7047C7
:1025200008B508490968C9084FF47A72B1FBF2F19D
:102530004143009100BF00BF00994A1E009200294C
:10254000F9D108BD2000002070B51A48006819496B
:10255000486000F039F81749086008464068096883
:1025600000EA01041449096824EA010013490840FB
:10257000134908601048006820430F4908600D485F
:1025800040680C4909680843C5430B480068284067
:102590000A4908400B49086007480068A8430649F3
:1025A0000860084600680549084003490860084675
:1025B000006870BD0C00002000000020FF073F00F5
:1025C000040000200800002010B5002401213F482D
:1025D000FEF79AF808B944F0010402213B48FEF7DF
:1025E00093F808B944F4806404213848FEF78CF865
:1025F00008B944F0200408213448FEF785F808B9EA
:1026000044F0800410213148FEF77EF808B944F008
:10261000400420212D48FEF777F808B944F480746F
:1026200004212B48FEF770F808B944F010044FF469
:1026300080712648FEF768F808B944F002044FF4A8
:1026400000712248FEF760F808B944F004044FF422
:1026500080611E48FEF758F808B944F008044FF4AA
:1026600000411A48FEF750F808B944F400741021EC
:102670001748FEF749F808B944F48034402114485B
:10268000FEF742F808B944F4003420211048FEF760
:102690003BF808B944F4802480210D48FEF734F853
:1026A00008B944F400244FF480710948FEF72CF86F
:1026B00008B944F480144FF400710548FEF724F87B
:1026C00008B944F40014204610BD00000008014081
:1026D000000C0140704710B5FEF72AF810BD00B598
:1026E00093B0282109A8FDF7C1FD142104A8FDF726
:1026F000BDFD002000900190029003900120099000
:1027000000040A9000200B9001200D9002201090F0
:10271000C1031191C104129109A8FFF759F908B139
:10272000FDF743FE0F200490022005900020069044
:102730004FF48060079000200890022104A8FFF762
:1027400047F808B1FDF731FE1020009000200390FB
:102750006846FEF7A5FF08B1FDF727FE13B000BDE0
:10276000704770B5D0F8B822D0F8C052002A1BD0FC
:1027700001EB810C00EB8C030026DC6954B105EB06
:10278000CC0CDCF838C0B4FBFCF50CFB154CBCF1F0
:10279000000F03D0C2F81462002070BDDE61002378
:1027A0001A4600F084FDF7E7022070BD70B50546BB
:1027B000D5F8B842284600F079FCC4F80C02D5F8E8
:1027C000B80248B1D5F8BC12D4F80402CA6804F5BE
:1027D00003719047002070BD022070BD70B50446A3
:1027E00000268121204600F0A8FB0025E56201219A
:1027F000204600F0A2FBC4F86C518221204600F074
:102800009CFB2564D4F8B80248B1D4F8BC024068F7
:102810008047D4F8B80200F089FFC4F8B8523046B7
:1028200070BD10B5D0F8B842D0F8BC1200290BD05A
:1028300094F80002FF2807D08B6894F80122214603
:102840009847FF2084F80002002010BD0A21018073
:1028500000487047880000204321018000487047ED
:10286000D8000020432101800048704794000020D8
:1028700043210180004870471C01002070B50446C8
:102880000026207C0125002831D04023022281210E
:10289000204600F062FCE56240230222012120462E
:1028A00000F05BFCC4F86C5108230322822120460F
:1028B00000F053FC25644FF4077000F039FFC4F8B2
:1028C000B80230B30546D4F8BC0200688047002047
:1028D000C5F81402C5F81802207CE0B1402301219C
:1028E0002046D5F8042200F044FC304670BD4FF479
:1028F000007302228121204600F02FFCE5624FF494
:10290000007302220121204600F027FCC4F86C511C
:10291000CAE70126E9E74FF4007301212046D5F804
:10292000042200F026FCE0E710B5D0F8B812002928
:1029300011D0027C3AB1D1F804224023012100F0E9
:1029400018FC002010BDD1F804224FF400730121BF
:1029500000F00FFCF5E7022010BD0246022000291E
:1029600002D0C2F8BC1200207047D0F8B802C0F8FC
:10297000041200207047D0F8B802C0F80812C0F85E
:10298000102200207047F0B583B005460C46D5F8FC
:10299000B8720020029001900026207810F06001AB
:1029A0002ED0202907D02146284600F0A5F802267F
:1029B00003B03046F0BDE288D2B110F0800F0BD0EA
:1029C000D5F8BC1260788B6839469847E28839465A
:1029D000284600F0B7F8EBE7607887F80002A079A6
:1029E00087F80102E2883946284600F091F8DFE7CF
:1029F000D5F8BC12607800228B6821469847D7E74B
:102A0000607848B10A2817D00B2825D021462846DF
:102A100000F072F80226CBE795F89C02032805D057
:102A20002146284600F068F80226C1E7022201A9E3
:102A3000284600F087F8BBE795F89C02032805D0EC
:102A40002146284600F058F80226B1E7012202A9E3
:102A5000284600F077F8ABE795F89C020328A7D04A
:102A60002146284600F048F80226A1E710B5D0F824
:102A7000B812002914D0D1F814220AB1012010BDD7
:102A80000122C1F81422D1F810220263B1F81022F9
:102A900093B2D1F80822812100F009FC002010BD7A
:102AA000022010BD10B5D0F8B42252689047002023
:102AB00010BD90F89C22012A05D0022A03D0032AD7
:102AC00001D000F019B84988012904D10021C0F8CB
:102AD000A41200F044B8704710B513460A4600210E
:102AE00000F047FB002010BD10B513460A46002138
:102AF00000F0DDFB002010BD10B50446802120460B
:102B000000F0BAFB2046BDE81040002100F0B4BB45
:102B100010B50323C0F89432C0F85C21C0F86021DE
:102B200013460A46002100F024FB002010BD10B51A
:102B30000521C0F8941200231A46194600F019FB2B
:102B4000002010BD10B50223C0F89432C2610262A9
:102B500013460A46002100F0AAFB002010BD10B564
:102B60000421C0F8941200231A46194600F09FFB76
:102B7000002010BD10B5002806D00A46054906A061
:102B800000F088F9034810BD0A46024902A000F08F
:102B900081F9F7E75C04002043444320436F6E66ED
:102BA0006967000012200880004870474400002038
:102BB00010B5002806D00A46054906A000F06AF9BB
:102BC000034810BD0A46024902A000F063F9F7E786
:102BD0005C04002043444320496E7465726661635F
:102BE0006500000004200880004870474000002075
:102BF00010B50A46024903A000F04CF9004810BD88
:102C00005C04002053544D6963726F656C65637496
:102C1000726F6E696373000010B5002806D00A4613
:102C2000054906A000F036F9034810BD0A460249DE
:102C300002A000F02FF9F7E75C04002053544D3355
:102C400032205669727475616C20436F6D506F72DB
:102C50007400000010B51A200880FDF7A9FB014898
:102C600010BD000058000020CA88012A01D0FFF7DB
:102C700043BF90F89C22012A05D0022A03D0032AE0
:102C800008D0FFF739BF00218160012200F108015F
:102C9000FFF758BF0122011DFFF754BF2DE9F8438C
:102CA00004460F4600200090002600257888010A7F
:102CB000082970D2DFE801F0AB040C22ABAB8B9A91
:102CC000D4F8B012207C0A68694690470646A3E013
:102CD000207C4FF0020840B1D4F8B402C16A6846C3
:102CE0008847064686F8018096E0D4F8B402816AE7
:102CF00068468847064686F801808DE0C0B20628FF
:102D00005FD2DFE800F0031221303F4FD4F8B00269
:102D1000426822B1207C6946904706467CE03946ED
:102D20002046FFF7E9FE012576E0D4F8B00282687C
:102D300022B1207C6946904706466DE03946204620
:102D4000FFF7DAFE012567E0D4F8B002C26822B1CD
:102D5000207C6946904706465EE039462046FFF7EC
:102D6000CBFE012558E0D4F8B002026922B1207CE4
:102D70006946904706464FE039462046FFF7BCFEBD
:102D8000012549E0D4F8B00242692AB1207C6946A5
:102D90009047064640E03AE039462046FFF7ACFE51
:102DA000012539E0D4F8B002826922B1207C69465D
:102DB0009047064630E039462046FFF79DFE012544
:102DC0002AE039462046FFF797FE012524E0207CC3
:102DD00028B139462046FFF78FFE01251CE0D4F8C4
:102DE000B402416B68468847064615E0207C28B14E
:102DF00039462046FFF780FE01250DE0D4F8B402E5
:102E0000016B6846884706460721717004E0394621
:102E10002046FFF771FE0125002D12D1BDF80000FC
:102E200048B1FA883AB1824200D90246009231464E
:102E30002046FFF787FEF888002802D12046FFF7DA
:102E40008EFEBDE8F88300210278002A05D0491CD7
:102E5000C9B2401C0278002AF9D10846704790F8A0
:102E60009C22012A05D0022A03D0032A01D0FFF7B1
:102E700043BECA88022A01D0FFF73EBE0021C160CE
:102E8000D0F8A41209B10221C160022200F10C01A4
:102E9000FFF758BE70B504460D461646002C1AD0F2
:102EA0002046FFF7D0FF022101EB40003080307850
:102EB0002870032102206970217800290BD000229C
:102EC00014F8013B411CC9B22B54481CC0B26A54CF
:102ED00021780029F4D170BD01460020002906D0D8
:102EE000012905D0022905D0032905D00220704709
:102EF00002207047012070470220704710B500285B
:102F000010D0D0F8B43213B10023C0F8B43209B1F4
:102F1000C0F8B012012180F89C12027000F0CAF8CB
:102F2000002010BD022010BD10B5D0F8C002FDF782
:102F30003CFDBDE81040FFF7CFBF10B5D0F8C00290
:102F4000FDF7FEFCBDE81040FFF7C6BF70B50446B4
:102F50009446002909D0D4F8B40242691AB194F811
:102F60009C02032859D0022070BD04F11400D4F84B
:102F700094120025022904D0042940D000293ED013
:102F800041E0C36801698B420DD9591AC1608AB208
:102F900061462046FFF7A8FD00231A461946204641
:102FA00000F0E7F82FE08068B0FBF1F201FB1202BD
:102FB0009AB9884211D3D4F8981288420DD20022CF
:102FC00011462046FFF790FDC4F8985200231A4698
:102FD0001946204600F0CDF815E0D4F8B402C168D7
:102FE00029B194F89C02032801D12046884780210A
:102FF000204600F041F92046FFF799FD03E08021CB
:10300000204600F039F994F8A002012807D12046A3
:1030100000F073F984F8A05201E0204690470020A8
:1030200070BD10B5044608461146002809D0D4F8F2
:10303000B4128A691AB194F89C12032931D0022083
:1030400010BD04F5AA70D4F89432032B02D0052BDE
:103050001FD029E0D0F810C0C36863450BD9A3EB9B
:103060000C03C3600069834200D303469AB2204632
:10307000FFF732FD18E0D4F8B402016929B194F8E1
:103080009C02032801D1204688472046FFF767FDB0
:103090000AE00020C4F894020021204600F0ECF879
:1030A00002E0014620469047002010BDD0F8C00243
:1030B000FEF704B810B504461D48C0F8EC42C4F849
:1030C000C0021C4901600821416002218160002189
:1030D0008161C1610162FEF7A9F908B1FDF765F9E7
:1030E000002218231146D4F8C002FDF7F3FB582341
:1030F00000228021D4F8C002FDF7ECFBC02300229F
:103100008121D4F8C002FDF7E5FB4FF4887300225B
:103110000121D4F8C002FDF7DDFB4FF480730022DB
:103120008221D4F8C002FDF7D5FB002010BD0000BD
:103130007C100020005C004011F0800F01F07F0146
:10314000D0F8C00201EB810100EBC10002D090F881
:103150002A00704790F86A01704710B59C461346E4
:10316000D0F8C0026246FDF7B4FFBDE81040FFF79B
:10317000B3BE10B5D0F8C002FDF7EDFFBDE81040BA
:10318000FFF7AABE70B50446002240231146204630
:10319000FFF7E3FF0125C4F858514026C4F86461E5
:1031A0004023002280212046FFF7D7FFA5616662F9
:1031B00084F89C520020C4F894026060C4F8A40211
:1031C000D4F8B80228B1D4F8B402002142682046ED
:1031D0009047002070BD90F89C12042903D190F80C
:1031E0009D1280F89C120020704710B590F89C1238
:1031F000032904D1D0F8B412C96901B1884700206D
:1032000010BD01740020704710B5D0F8C002FEF761
:10321000F4F9BDE81040FFF75FBE10B5044604F5B1
:103220002A7000F04DF80120C4F89402B4F8AE0200
:10323000C4F8980294F8A81211F01F000AD00128CF
:103240000ED0022812D001F08001204600F014F8C0
:10325000002010BD04F52A71204600F0FCF8F7E7C5
:1032600004F52A71204600F02EFAF1E704F52A71E0
:10327000204600F030F9EBE710B5D0F8C002FDF7BA
:1032800088FFBDE81040FFF727BE10B5D0F8C00298
:10329000FEF7D5F9BDE81040FFF71EBE90F89C126E
:1032A00080F89D12042180F89C120020704710B510
:1032B000D0F8C002FDF7B1FFBDE81040FFF70CBE2B
:1032C0000A7802704A7842708A78CB7802EB03223F
:1032D00042800A794B7902EB032282808A79C9798C
:1032E00002EB0121C180704702460020002902D074
:1032F000C2F8B4127047022070470020704770B5C2
:1033000004468888002821D1C888F8B948888028D0
:103310001CD200F07F0594F89C0203280DD084F89D
:103320009E5229462046FFF76FFF2046FFF717FC05
:1033300045B1022084F89C0270BD2046BDE8704073
:10334000FFF7DABB012084F89C0270BD2046BDE87F
:103350007040FFF7D1BB10B50224D0F8B422002A88
:1033600003D01268904700B90024204610BD000029
:1033700070B504460D46304EA9783170012905D943
:1033800029462046BDE87040FFF7B6BB94F89C0282
:1033900002280BD0032823D029462046FFF7ACFB98
:1033A00031782046BDE87040FFF77CBB99B1616081
:1033B000032084F89C022046FFF7CDFF022804D0AA
:1033C0002046BDE87040FFF7CABB29462046BDE84D
:1033D0007040FFF791BB2046BDE87040FFF7BFBBD0
:1033E00091B16068884221D0C1B22046FFF75AFBF4
:1033F000317861602046FFF7AEFF022810D02046EA
:10340000BDE87040FFF7ABBB022084F89C0261600E
:103410002046FFF747FB2046BDE87040FFF79FBB03
:1034200029462046BDE87040FFF766BB2046BDE850
:103430007040FFF794BB00008400002049880129F8
:1034400003D1C0F8A412FFF78ABB704710B5FFF78D
:103450001CFF002010BD10B503460024087810F0B2
:1034600060020ED0202A06D0402A04D01846FFF76A
:1034700043FB204610BDD3F8B4028268184690473B
:10348000F7E748780A2822D2DFE800F0151D211955
:1034900021090521110D1846FFF700FCE9E7184640
:1034A000FFF72DFFE5E71846FFF762FFE1E7184653
:1034B000FFF7DAFBDDE71846FFF7D1FCD9E718463E
:1034C000FFF7BCFFD5E71846FFF7F3FAD1E7184638
:1034D000FFF712FBCDE72DE9F04104460846002630
:1034E0000179037813F0600211D0202A08D0402A15
:1034F00006D001462046FFF7FFFA3046BDE8F081CE
:10350000D4F8B4128A68014620469047F5E703F0E4
:103510006002202A0BD04278002A61D0012A37D0DD
:10352000032A0CD001462046FFF7E6FAE5E7D4F877
:10353000B4128A6801462046BDE8F041104794F86D
:103540009C22022A06D0032A14D001462046FFF707
:10355000D3FAD2E749B1802907D02046FFF78CFE85
:1035600080212046FFF788FEC7E701462046FFF787
:10357000C3FAC2E742883AB931B1802904D0C08881
:1035800010B92046FFF778FE2046FFF7E8FAB4E7C7
:1035900094F89C22022A06D0032A14D00146204621
:1035A000FFF7AAFAA9E749B1802907D02046FFF71B
:1035B00063FE80212046FFF75FFE9EE7014620461E
:1035C000FFF79AFA99E74088002896D111F07F0F0B
:1035D00002D02046FFF7A8FC2046FFF7C0FA8CE790
:1035E00094F89C220027022A06D0032A26D00146FE
:1035F0002046FFF781FA80E731B1802904D00146E7
:103600002046FFF779FA78E711F0800F08D001F033
:103610007F0000EB800004EB800000F1140107E064
:1036200001F07F0000EB800004EB800000F5AA7140
:103630000F6002222046FFF785FA5EE711F0800F47
:103640000CD001F00F0202EB820204EB82029269BD
:103650006AB901462046FFF74FFA4EE701F00F0224
:1036600002EB820204EB8202D2F858215AB111F027
:10367000800F0DD001F07F0000EB800004EB800094
:1036800000F114050CE001462046FFF735FA34E757
:1036900001F07F0000EB800004EB800000F5AA75CC
:1036A00041B1802906D02046FFF746FD20B1012018
:1036B000286002E02F6000E02F60022229462046A9
:1036C000FFF740FA19E770B505460C46207810F070
:1036D000600209D0202A07D0402A05D0214628467A
:1036E000FFF70AFA002070BD95F89C22012A08D045
:1036F000022A06D0032A04D021462846FFF7FCF907
:10370000F0E7207901280CD8D5F8B4022146826868
:1037100028469047E1880843E4D12846FFF71FFA7E
:10372000E0E721462846FFF7E7F9DBE770470000AE
:10373000004870475C0E0020F0B50246002608786D
:10374000400032F8100048F68F1400EA0403C878ED
:1037500030B101280CD0022805D003280BD104E099
:1037600043F4007309E000BF07E043F4C06304E0E2
:1037700043F4806301E0012600BF00BF43F4004032
:1037800040F080000C78640022F8140000BF0C7830
:10379000640032F8144048F68F752C400D7844EAE6
:1037A000050040F4004444F080040D786D0022F8D8
:1037B000154000BF087B00287ED14878002852D0F1
:1037C00000BF1046B2F8505028440D7800F58067CD
:1037D00007EB0514CD886D106D00258000BF00BF7C
:1037E0000C78640032F8140000F040048CB100BF83
:1037F0000D786D0032F8155048F68F7705EA07040A
:1038000044F4004545F0C0050F787F0022F81750BA
:1038100000BF00BFC878012813D000BF0C78640037
:1038200032F8144048F6BF7504EA050080F0200025
:1038300040F4004444F080040D786D0022F81540F7
:10384000D0E100BF0C78640032F8144048F6BF7530
:1038500004EA050040F4004444F080040D786D0053
:1038600022F81540BEE100BF1046B2F8505028447F
:103870000D78042707EBC50500F5806707EB4504C5
:10388000CD886D106D00258000BF00BF1546B2F8D1
:10389000504025440C78062707EBC40405F58067E3
:1038A00007EB4404204600BF0788C7F309070780D9
:1038B0000F693E2F14D900E073E000BF0F697C0947
:1038C0000F7C07F01F0707B9641E07884FF4004CF0
:1038D0004CEA842C1FFA8CFC47EA0C07078017E09F
:1038E0000F6927B9078847F40047078010E000BF39
:1038F0000F697C080F7C07F0010707B1641C07887B
:103900004FF6FF7C0CEA842C47EA0C07078000BFC7
:1039100000BF00BF00BF0C78640032F8140000F450
:1039200080448CB100BF0D786D0032F8155048F618
:103930008F7705EA070444F4004545F481450F7884
:103940007F0022F8175000BF00BF0878A8B900BF59
:103950000C78640032F814404BF68F7504EA0500C9
:1039600080F4805080F4005040F4004444F080041F
:103970000D786D0022F8154034E100BF0C7864002A
:1039800032F814404BF68F7504EA050080F40050BD
:1039900040F4004444F080040D786D0022F8154096
:1039A00020E1C878022811D100BF0C78640032F8F9
:1039B000144048F68F7504EA050040F4004444F4CE
:1039C000C0740D786D0022F8154011E000BF0C782E
:1039D000640032F8144048F68F6504EA050040F4AC
:1039E000004444F080040D786D0022F8154000BFBB
:1039F00000BF00BF00BF1046B2F8505028440D78F9
:103A000000F5806707EB05140D896D106D002580AA
:103A100000BF00BF00BF00BF1046B2F8505028449E
:103A20000D78042707EBC50500F5806707EB450413
:103A30004D896D106D00258000BF00BF00BF487824
:103A4000E8BB00BF0C78640032F8140000F4804436
:103A50008CB100BF0D786D0032F8155048F68F77A5
:103A600005EA070444F4004545F481450F787F00DA
:103A700022F8175000BF00BF00BF0C78640032F876
:103A8000140000F040048CB100BF0D786D0032F8D6
:103A9000155048F68F7705EA070444F4004545F0D1
:103AA000C0050F787F0022F8175000BF00BF00BF8D
:103AB0000C78640032F814404BF68F7500E020E07B
:103AC00004EA050080F4805080F4005040F4004483
:103AD00044F080040D786D0022F8154000BF00BF4F
:103AE0000C78640032F8144048F6BF7504EA05000B
:103AF00040F4004444F080040D786D0022F8154035
:103B000070E000BF0C78640032F8140000F48044C8
:103B10008CB100BF0D786D0032F8155048F68F77E4
:103B200005EA070444F4004545F481450F787F0019
:103B300022F8175000BF00BF00BF0C78640032F8B5
:103B4000140000F040048CB100BF0D786D0032F815
:103B5000155048F68F7705EA070444F4004545F010
:103B6000C0050F787F0022F8175000BF00BFC8784B
:103B7000012813D000BF0C78640032F8144048F6D6
:103B8000BF7504EA050080F0200040F4004444F0D2
:103B900080040D786D0022F8154011E000BF0C780C
:103BA000640032F8144048F6BF7504EA050040F49A
:103BB000004444F080040D786D0022F8154000BFE9
:103BC00000BF0C78640032F814404BF68F7504EA9D
:103BD000050040F4004444F080040D786D0022F8A4
:103BE000154000BF3046F0BD10B50446002010BDA2
:103BF00030B50246087B00285BD1487860B300BF2F
:103C00000B785B0032F8130000F040038BB100BF6B
:103C10000C78640032F8144048F68F7504EA050306
:103C200043F4004444F0C0040D786D0022F81540C0
:103C300000BF00BF00BF0B785B0032F8133048F6BE
:103C4000BF7403EA040040F4004343F080030C789F
:103C5000640022F8143007E100BF0B785B0032F8F3
:103C6000130000F480438BB100BF0C78640032F87D
:103C7000144048F68F7504EA050343F4004444F405
:103C800081440D786D0022F8154000BF00BF00BFD1
:103C90000B785B0032F813304BF68F7403EA0400A4
:103CA00040F4004343F080030C78640022F81430A1
:103CB000DAE0487800286BD100BF0B785B0032F85F
:103CC000130000F480438BB100BF0C78640032F81D
:103CD000144048F68F7504EA050343F4004444F4A5
:103CE00081440D786D0022F8154000BF00BF00BF71
:103CF0000B785B0032F8130000F040038BB100BF7B
:103D00000C78640032F8144048F68F7504EA050315
:103D100043F4004444F0C0040D786D0022F81540CF
:103D200000BF00BF00BF0B785B0032F8133048F6CD
:103D30008F7403EA040040F4004343F0C0030C789E
:103D4000640022F8143000BF00BF0B785B0032F82B
:103D500013304BF68F7403EA040040F4004343F041
:103D600080030C78640022F8143000BF00BF0B7889
:103D70005B0032F8133048F6BF7403EA040040F4E5
:103D8000004343F080030C78640022F814306BE0A9
:103D900000BF0B785B0032F8130000F480438BB156
:103DA00000BF0C78640032F8144048F68F7504EABE
:103DB000050343F4004444F481440D786D0022F877
:103DC000154000BF00BF00BF0B785B0032F8130046
:103DD00000F040038BB100BF0C78640032F814404F
:103DE00048F68F7504EA050343F4004444F0C00428
:103DF0000D786D0022F8154000BF00BF00BF0B78A2
:103E00005B0032F8133048F68F7403EA040040F484
:103E1000004343F481430C78640022F8143000BF5F
:103E200000BF0B785B0032F8133048F6BF7403EA2A
:103E3000040040F4004343F080030C78640022F84F
:103E4000143000BF00BF0B785B0032F813304BF624
:103E50008F7403EA040040F4004343F080030C78BD
:103E6000640022F8143000BF002030BD014600205D
:103E7000704701460020704710B50446012024F821
:103E8000400F00202080A0802082403C10BD0146D1
:103E90004FF43F42B1F840009043A1F840000020A9
:103EA000704702460020704730B50246087B002864
:103EB00065D1487888B300BF0B785B0032F81300F7
:103EC00000F040038BB100BF0C78640032F814405E
:103ED00048F68F7504EA050343F4004444F0C00437
:103EE0000D786D0022F8154000BF00BFC87801288A
:103EF00045D000BF0B785B0032F8133048F6BF7432
:103F000003EA040080F0200040F4004343F0800303
:103F10000C78640022F8143031E0FFE700BF0B7822
:103F20005B0032F8130000F480438BB100BF0C78C3
:103F3000640032F8144048F68F7504EA050343F430
:103F4000004444F481440D786D0022F8154000BF10
:103F500000BF00BF0B785B0032F813304BF68F7454
:103F600003EA040080F4805080F4005040F40043E1
:103F700043F080030C78640022F8143000BF002066
:103F800030BD10B50246487898B100BF0B785B0091
:103F900032F8133048F6BF7403EA040080F01000D2
:103FA00040F4004343F080030C78640022F814309E
:103FB00013E000BF0B785B0032F813304BF68F74C0
:103FC00003EA040080F4805040F4004343F080038F
:103FD0000C78640022F8143000BF002010BD2DE9D9
:103FE000F04706460C466078012872D12169A06925
:103FF000884201D9256900E0A569207BA0B9ABB250
:10400000E2883046616900F05EFD00BF3046B6F8D8
:10401000502010442278022303EBC20200F5806393
:1040200003EB42010D80C1E2E078022870D12169E2
:10403000206A88426DD900BF2178490036F81110F6
:1040400048F68F7201EA020040F4004141F4C07169
:104050002278520026F8121000BF206A401B20620E
:104060002078400036F8100000F04000002874D09E
:1040700000BF3346607868BB00BF3246B6F85010C8
:104080000A4421784FF0060909EBC10102F5806965
:1040900009EB4101084600BFB0F80090C9F30909D7
:1040A000A0F800903E2D16D900BF690905F01F0940
:1040B000B9F1000F00D1491EB0F800904FF4004A4A
:1040C0004AEA812A1FFA8AFA49EA0A09A0F8009006
:1040D0001CE081E21EE035B9B0F8009049F40049D7
:1040E000A0F8009012E000BF690805F00109B9F1DD
:1040F000000F00D0491CB0F800904FF6FF7A0AEA92
:10410000812A49EA0A09A0F8009000BF00BF11E027
:104110007EE153E1607801280CD1B6F850000344E9
:104120002078062101EBC00003F5806101EB400C13
:10413000ACF8005000BF6789ABB23A4630466169BF
:1041400000F0C1FC6069284460612169206A8842EE
:1041500004D9206A401B206203E05EE0256A00204B
:10416000206200BF6078E0BB00BF3246B6F8501056
:104170000A442178022303EBC10102F5806303EBBB
:104180004101084600BF0388C3F3090303803E2DA5
:1041900010D900BF690905F01F0303B9491E038840
:1041A0004FF4004C4CEA812C1FFA8CFC43EA0C03C0
:1041B000038014E025B9038843F4004303800EE034
:1041C00000BF690805F0010303B1491C03884FF6DD
:1041D000FF7C0CEA812C43EA0C03038000BF00BF84
:1041E00012E0FFE7607801280ED100BF3046B6F834
:1041F000502010442278022303EBC20200F58063B2
:1042000003EB42010D8000BF00BF2789ABB23A46E5
:104210003046616900F057FCC8E100BF6078E0BB40
:1042200000BF3246B6F850100A442178022303EB4F
:10423000C10102F5806303EB4101084600BF03881A
:10424000C3F3090303803E2D10D900BF690905F0AF
:104250001F0303B9491E03884FF4004C4CEA812C1C
:104260001FFA8CFC43EA0C03038014E025B9038891
:1042700043F4004303800EE000BF690805F001032A
:1042800003B1491C03884FF6FF7C0CEA812C43EAFA
:104290000C03038000BF00BF12E0FFE76078012835
:1042A0000ED100BF3046B6F85020104422780223C9
:1042B00003EBC20200F5806303EB42010D8000BFF7
:1042C00000BF2789ABB23A463046616900F0FBFB7C
:1042D0006069284460612169206A884203D9206AA4
:1042E000401B206202E0256A0020206200BF3346A6
:1042F0006078A0BB00BF3246B6F850100A4421785F
:104300004FF0060909EBC10102F5806909EB410193
:10431000084600BFB0F80090C9F30909A0F8009062
:104320003E2D14D900BF690905F01F09B9F1000F2E
:1043300000D1491EB0F800904FF4004A4AEA812AA1
:104340001FFA8AFA49EA0A09A0F800901BE03DB971
:10435000B0F8009049F40049A0F8009013E014E090
:1043600000BF690805F00109B9F1000F00D0491C30
:10437000B0F800904FF6FF7A0AEA812A49EA0A0962
:10438000A0F8009000BF00BF0FE0607801280CD1BA
:10439000B6F8500003442078062101EBC00003F575
:1043A000806101EB400CACF8005000BF6789ABB2F4
:1043B0003A463046616900F086FBF7E0256A00BFA7
:1043C0002178490036F8111048F68F6201EA0200A0
:1043D00040F4004141F080012278520026F812108A
:1043E00000BF00BF3046B6F85020104422780223A8
:1043F00003EBC20200F5806303EB42010D8000BFB6
:104400002789ABB23A463046616900F05CFBCDE0EB
:10441000206A401B20622078400036F8100000F02F
:10442000400080B300BF3346607868BB00BF3246AF
:10443000B6F850100A4421784FF0060909EBC10183
:1044400002F5806909EB4101084600BFB0F8009011
:10445000C9F30909A0F800903E2D16D900BF6909DB
:1044600005F01F09B9F1000F00D1491EB0F8009006
:104470004FF4004A4AEA812A1FFA8AFA49EA0A09ED
:10448000A0F800901CE036E01CE035B9B0F80090D0
:1044900049F40049A0F8009012E000BF690805F057
:1044A0000109B9F1000F00D0491CB0F800904FF697
:1044B000FF7A0AEA812A49EA0A09A0F8009000BFB7
:1044C00000BF0FE0607801280CD1B6F8500003441B
:1044D0002078062101EBC00003F5806101EB400C60
:1044E000ACF8005000BF6789ABB23A46304661690C
:1044F00000F0E9FA5AE000BF6078E0BB00BF324646
:10450000B6F850100A442178022303EBC10102F5EA
:10451000806303EB4101084600BF0388C3F309032E
:1045200003803E2D10D900BF690905F01F0303B9B0
:10453000491E03884FF4004C4CEA812C1FFA8CFC76
:1045400043EA0C03038014E025B9038843F40043D5
:1045500003800EE000BF690805F0010303B1491CA8
:1045600003884FF6FF7C0CEA812C43EA0C0303809E
:1045700000BF00BF12E0FFE7607801280ED100BF46
:104580003046B6F8502010442278022303EBC202D2
:1045900000F5806303EB42010D8000BF00BF278957
:1045A000ABB23A463046616900F08DFA00BF21781F
:1045B000490036F8111048F6BF7201EA020080F097
:1045C000100080F0200040F4004141F0800122788A
:1045D000520026F8121028E2207B88BB2169A069CE
:1045E000884204D92569A069401BA06102E0A56941
:1045F0000020A06100BF3246B6F850100A4421786E
:10460000062303EBC10102F5806303EB4101084679
:1046100000BF0388C3F3090303803E2D11D900BFF7
:10462000690905F01F0303B9491E03884FF4004CC4
:104630004CEA812C1FFA8CFC43EA0C03038015E042
:1046400016E025B9038843F4004303800EE000BF61
:10465000690805F0010303B1491C03884FF6FF7C8C
:104660000CEA812C43EA0C03038000BF00BFC6E1C3
:10467000E07802287CD100BF00BF607878BB00BF23
:104680003246B6F850100A442178022303EBC101E8
:1046900002F5806303EB4101084600BF0388C3F3C2
:1046A0000903038023693E2B12D900BF23695909EE
:1046B000237C03F01F0303B9491E03884FF4004C09
:1046C0004CEA812C1FFA8CFC43EA0C03038018E0AF
:1046D00023692BB9038843F40043038011E012E0FF
:1046E00000BF23695908237C03F0010303B1491C6F
:1046F00003884FF6FF7C0CEA812C43EA0C0303800D
:1047000000BF00BF12E0607801280FD100BF304623
:10471000B6F8502010442278022303EBC20200F5C1
:10472000806303EB4201228A0A8000BF00BF00BF02
:1047300033466078B0BB00BF3246B6F850100A442A
:1047400021784FF0060909EBC10102F5806909EBF8
:104750004101084600BFB0F80090C9F30909A0F86C
:104760000090D4F81090B9F13E0F1CD900BF00E0C2
:104770007BE0D4F810904FEA591194F8109009F0AA
:104780001F09B9F1000F00D1491EB0F800904FF495
:10479000004A4AEA812A1FFA8AFA49EA0A09A0F875
:1047A000009024E025E0D4F81090B9F1000F06D174
:1047B000B0F8009049F40049A0F8009017E000BF5D
:1047C000D4F810904FEA590194F8109009F00109BB
:1047D000B9F1000F00D0491CB0F800904FF6FF7AF5
:1047E0000AEA812A49EA0A09A0F8009000BF00BF3E
:1047F00010E0607801280DD1B6F85000034420780D
:10480000062101EBC00003F5806101EB400C208A1A
:10481000ACF8000000BF00BFE069002824D0207879
:10482000400036F8108008F4804010B108F04000D5
:1048300038B908F48040002816D108F0400000285C
:1048400012D100BF00BF2178490036F8111048F698
:104850008F7201EA020040F4004141F0C001227869
:10486000520026F8121000BFC9E0E07801287ED17E
:104870002169A069884204D92569A069401BA0610B
:1048800002E0A5690020A06100BF00BF6078E0BB26
:1048900000BF3246B6F850100A442178022303EBD9
:1048A000C10102F5806303EB4101084600BF0388A4
:1048B000C3F3090303803E2D10D900BF690905F039
:1048C0001F0303B9491E03884FF4004C4CEA812CA6
:1048D0001FFA8CFC43EA0C03038014E025B903881B
:1048E00043F4004303800EE000BF690805F00103B4
:1048F00003B1491C03884FF6FF7C0CEA812C43EA84
:104900000C03038000BF00BF12E0FFE760780128BE
:104910000ED100BF3046B6F8502010442278022352
:1049200003EBC20200F5806303EB42010D8000BF80
:1049300000BF00BF3346607870BB00BF3246B6F898
:1049400050100A4421784FF0060909EBC10102F525
:10495000806909EB4101084600BFB0F80090C9F337
:104960000909A0F800903E2D17D900BF00E043E0F0
:10497000690905F01F09B9F1000F00D1491EB0F80F
:1049800000904FF4004A4AEA812A1FFA8AFA49EA5B
:104990000A09A0F800901BE01CE035B9B0F80090BF
:1049A00049F40049A0F8009012E000BF690805F042
:1049B0000109B9F1000F00D0491CB0F800904FF682
:1049C000FF7A0AEA812A49EA0A09A0F8009000BFA2
:1049D00000BF0FE0607801280CD1B6F85000034406
:1049E0002078062101EBC00003F5806101EB400C4B
:1049F000ACF8005000BF02E00120BDE8F08700BF26
:104A00002178490036F811104BF68F7201EA020046
:104A100080F4805080F4005040F4004141F0800167
:104A20002278520026F8121000BF0020E5E7014668
:104A30000020A1F844004FF43F42A1F84020704705
:104A400010B50248FCF70CFC10BD00007C100020E3
:104A500010B50248FCF704FC10BD00007C100020DB
:104A60000146B1F8440070472DE9F04304460E4674
:104A700015464FEA530CA046304608F5806909EB0D
:104A8000450267460AE01188921C0170401C4FEAFB
:104A9000112980F80090401C921C7F1E002FF2D13B
:104AA00003F00109B9F1000F01D011880170BDE8D0
:104AB000F083024600207047024611B98020A2F818
:104AC0004C00002070472DE9F04304460D461E4679
:104AD00006F101094FEA590CA046284608F58069FD
:104AE00009EB420367460AE0017890F8019041EA39
:104AF000092119809B1C9B1C401C401C7F1E002F01
:104B0000F2D1BDE8F08300BFFEE7000010B5044617
:104B100004F0010080F0010201212548FBF7FCFDB3
:104B2000012020EA942202212148FBF7F5FD012013
:104B300020EA541204211E48FBF7EEFD012020EA72
:104B4000D41208211A48FBF7E7FD012020EA94124D
:104B500010211748FBF7E0FD012020EA1422202154
:104B60001348FBF7D9FD012020EA14120421114853
:104B7000FBF7D2FD012020EA540201020C48FBF7AA
:104B8000CBFD012020EA940241020948FBF7C4FD55
:104B9000012020EAD40281020548FBF7BDFD012077
:104BA00020EA5422C1030248FBF7B6FD10BD000005
:104BB00000080140000C014002480068C0F30220D8
:104BC000704700000CED00E010B5002804DB0A0778
:104BD000130E054A135406E00A07140E034A00F0A8
:104BE0000F031B1FD45410BD00E400E018ED00E0DB
:104BF0000EB5FBF7A9FDFDF772FDFDF757F9FDF7BF
:104C0000E7F9FBF78FFD064668E0FBF78BFD06F141
:104C10000A01884262D9FBF785FD0646FDF794FC40
:104C200080462F4800682F490968084368B12E4A1A
:104C300007CA8DE80700FBF775FD0190CDF80880E5
:104C40000C216846FBF79AFB00BF17B1012F41D139
:104C500009E02348006800F4803018B100200446C1
:104C60000546012738E01F48006800F4803020B175
:104C70000020FFF74BFF002729E004EB44001B490D
:104C800008440188ADF8081080788DF80A009DF876
:104C9000080020B1012807D0022816D110E0BDF984
:104CA0000900FFF733FF10E0601E84B2681C85B274
:104CB000BDF90900A84202DC601C84B2002504E0B2
:104CC000BDF80900201A84B200BF00BF00BF601CFD
:104CD00084B201E0002700BF00BF00BF95E70000DD
:104CE0000400002008000020F4580008F04C0008E0
:104CF000000200012900000800011300000000016B
:104D00002600020500000000000000000000000076
:104D10000000000000000000000000000000000093
:104D20000000000000000000000000000000000083
:104D30000000000000000000000000000000000073
:104D40000000000000000000000000000000000063
:1058F0000A0000002EDB160100000000000000007E
:1059000002030405060708090A0B0C0D0E0F101000
:10591000010200000000000000000102030406076D
:105920000809000000000102030400004C590008AF
:105930000000002098010000280100080C5A00080F
:105940009801002038180000840100080118321066
:1059500042011324F413A52B1B08E5041AF10413C8
:10596000192C1B0855041A750C1AB10417040309E5
:10597000041201140202021640830440571D020162
:10598000020339031A1A031341031B083B041A3399
:10599000041A650441130A0632022A40741C0902E3
:1059A0004347111DC0320904851A020B1305241642
:1059B0001001052401100901042402020524061720
:1059C0000107058203081C1009047D320A1D070522
:1059D0000102432C070581070938442A40072A8120
:1059E00007112B0907440A3B0444137D281408DDE2
:1059F000274C088729E81A23101A63101AAD04C12E
:0C5A00001A65181A59041A71041A4D0492
:04000005080000ED02
:00000001FF
